{
  "_format": "hh-sol-artifact-1",
  "contractName": "TaskContract",
  "sourceName": "contracts/TaskContract.sol",
  "abi": [
    {
      "inputs": [],
      "stateMutability": "nonpayable",
      "type": "constructor"
    },
    {
      "anonymous": false,
      "inputs": [
        {
          "indexed": true,
          "internalType": "address",
          "name": "account",
          "type": "address"
        },
        {
          "indexed": true,
          "internalType": "address",
          "name": "operator",
          "type": "address"
        },
        {
          "indexed": false,
          "internalType": "bool",
          "name": "approved",
          "type": "bool"
        }
      ],
      "name": "ApprovalForAll",
      "type": "event"
    },
    {
      "anonymous": false,
      "inputs": [
        {
          "indexed": true,
          "internalType": "address",
          "name": "operator",
          "type": "address"
        },
        {
          "indexed": true,
          "internalType": "address",
          "name": "from",
          "type": "address"
        },
        {
          "indexed": true,
          "internalType": "address",
          "name": "to",
          "type": "address"
        },
        {
          "indexed": false,
          "internalType": "uint256[]",
          "name": "ids",
          "type": "uint256[]"
        },
        {
          "indexed": false,
          "internalType": "uint256[]",
          "name": "values",
          "type": "uint256[]"
        }
      ],
      "name": "TransferBatch",
      "type": "event"
    },
    {
      "anonymous": false,
      "inputs": [
        {
          "indexed": true,
          "internalType": "address",
          "name": "operator",
          "type": "address"
        },
        {
          "indexed": true,
          "internalType": "address",
          "name": "from",
          "type": "address"
        },
        {
          "indexed": true,
          "internalType": "address",
          "name": "to",
          "type": "address"
        },
        {
          "indexed": false,
          "internalType": "uint256",
          "name": "id",
          "type": "uint256"
        },
        {
          "indexed": false,
          "internalType": "uint256",
          "name": "value",
          "type": "uint256"
        }
      ],
      "name": "TransferSingle",
      "type": "event"
    },
    {
      "anonymous": false,
      "inputs": [
        {
          "indexed": false,
          "internalType": "string",
          "name": "value",
          "type": "string"
        },
        {
          "indexed": true,
          "internalType": "uint256",
          "name": "id",
          "type": "uint256"
        }
      ],
      "name": "URI",
      "type": "event"
    },
    {
      "inputs": [],
      "name": "MINT_TOKEN_F_COST",
      "outputs": [
        {
          "internalType": "uint256",
          "name": "",
          "type": "uint256"
        }
      ],
      "stateMutability": "view",
      "type": "function"
    },
    {
      "inputs": [],
      "name": "MINT_TOKEN_N_COST",
      "outputs": [
        {
          "internalType": "uint256",
          "name": "",
          "type": "uint256"
        }
      ],
      "stateMutability": "view",
      "type": "function"
    },
    {
      "inputs": [],
      "name": "MINT_TOKEN_T_COST",
      "outputs": [
        {
          "internalType": "uint256",
          "name": "",
          "type": "uint256"
        }
      ],
      "stateMutability": "view",
      "type": "function"
    },
    {
      "inputs": [],
      "name": "TOKEN_F",
      "outputs": [
        {
          "internalType": "uint256",
          "name": "",
          "type": "uint256"
        }
      ],
      "stateMutability": "view",
      "type": "function"
    },
    {
      "inputs": [],
      "name": "TOKEN_N",
      "outputs": [
        {
          "internalType": "uint256",
          "name": "",
          "type": "uint256"
        }
      ],
      "stateMutability": "view",
      "type": "function"
    },
    {
      "inputs": [],
      "name": "TOKEN_T",
      "outputs": [
        {
          "internalType": "uint256",
          "name": "",
          "type": "uint256"
        }
      ],
      "stateMutability": "view",
      "type": "function"
    },
    {
      "inputs": [
        {
          "internalType": "address",
          "name": "account",
          "type": "address"
        },
        {
          "internalType": "uint256",
          "name": "id",
          "type": "uint256"
        }
      ],
      "name": "balanceOf",
      "outputs": [
        {
          "internalType": "uint256",
          "name": "",
          "type": "uint256"
        }
      ],
      "stateMutability": "view",
      "type": "function"
    },
    {
      "inputs": [
        {
          "internalType": "address[]",
          "name": "accounts",
          "type": "address[]"
        },
        {
          "internalType": "uint256[]",
          "name": "ids",
          "type": "uint256[]"
        }
      ],
      "name": "balanceOfBatch",
      "outputs": [
        {
          "internalType": "uint256[]",
          "name": "",
          "type": "uint256[]"
        }
      ],
      "stateMutability": "view",
      "type": "function"
    },
    {
      "inputs": [
        {
          "internalType": "address",
          "name": "account",
          "type": "address"
        },
        {
          "internalType": "address",
          "name": "operator",
          "type": "address"
        }
      ],
      "name": "isApprovedForAll",
      "outputs": [
        {
          "internalType": "bool",
          "name": "",
          "type": "bool"
        }
      ],
      "stateMutability": "view",
      "type": "function"
    },
    {
      "inputs": [
        {
          "internalType": "uint256",
          "name": "amount",
          "type": "uint256"
        }
      ],
      "name": "mintTokenF",
      "outputs": [],
      "stateMutability": "payable",
      "type": "function"
    },
    {
      "inputs": [
        {
          "internalType": "uint256",
          "name": "tokenCount",
          "type": "uint256"
        }
      ],
      "name": "mintTokenN",
      "outputs": [],
      "stateMutability": "nonpayable",
      "type": "function"
    },
    {
      "inputs": [
        {
          "internalType": "uint256",
          "name": "tokenCount",
          "type": "uint256"
        }
      ],
      "name": "mintTokenT",
      "outputs": [],
      "stateMutability": "nonpayable",
      "type": "function"
    },
    {
      "inputs": [
        {
          "internalType": "address",
          "name": "",
          "type": "address"
        },
        {
          "internalType": "address",
          "name": "",
          "type": "address"
        },
        {
          "internalType": "uint256",
          "name": "",
          "type": "uint256"
        },
        {
          "internalType": "uint256",
          "name": "",
          "type": "uint256"
        },
        {
          "internalType": "bytes",
          "name": "",
          "type": "bytes"
        }
      ],
      "name": "onERC1155Received",
      "outputs": [
        {
          "internalType": "bytes4",
          "name": "",
          "type": "bytes4"
        }
      ],
      "stateMutability": "nonpayable",
      "type": "function"
    },
    {
      "inputs": [
        {
          "internalType": "address",
          "name": "from",
          "type": "address"
        },
        {
          "internalType": "address",
          "name": "to",
          "type": "address"
        },
        {
          "internalType": "uint256[]",
          "name": "ids",
          "type": "uint256[]"
        },
        {
          "internalType": "uint256[]",
          "name": "amounts",
          "type": "uint256[]"
        },
        {
          "internalType": "bytes",
          "name": "data",
          "type": "bytes"
        }
      ],
      "name": "safeBatchTransferFrom",
      "outputs": [],
      "stateMutability": "nonpayable",
      "type": "function"
    },
    {
      "inputs": [
        {
          "internalType": "address",
          "name": "from",
          "type": "address"
        },
        {
          "internalType": "address",
          "name": "to",
          "type": "address"
        },
        {
          "internalType": "uint256",
          "name": "id",
          "type": "uint256"
        },
        {
          "internalType": "uint256",
          "name": "amount",
          "type": "uint256"
        },
        {
          "internalType": "bytes",
          "name": "data",
          "type": "bytes"
        }
      ],
      "name": "safeTransferFrom",
      "outputs": [],
      "stateMutability": "nonpayable",
      "type": "function"
    },
    {
      "inputs": [
        {
          "internalType": "address",
          "name": "operator",
          "type": "address"
        },
        {
          "internalType": "bool",
          "name": "approved",
          "type": "bool"
        }
      ],
      "name": "setApprovalForAll",
      "outputs": [],
      "stateMutability": "nonpayable",
      "type": "function"
    },
    {
      "inputs": [
        {
          "internalType": "bytes4",
          "name": "interfaceId",
          "type": "bytes4"
        }
      ],
      "name": "supportsInterface",
      "outputs": [
        {
          "internalType": "bool",
          "name": "",
          "type": "bool"
        }
      ],
      "stateMutability": "view",
      "type": "function"
    },
    {
      "inputs": [
        {
          "internalType": "uint256",
          "name": "",
          "type": "uint256"
        }
      ],
      "name": "uri",
      "outputs": [
        {
          "internalType": "string",
          "name": "",
          "type": "string"
        }
      ],
      "stateMutability": "view",
      "type": "function"
    }
  ],
  "bytecode": "0x60806040523480156200001157600080fd5b506040518060200160405280600081525062000033816200003a60201b60201c565b50620003b0565b80600290816200004b9190620002c9565b5050565b600081519050919050565b7f4e487b7100000000000000000000000000000000000000000000000000000000600052604160045260246000fd5b7f4e487b7100000000000000000000000000000000000000000000000000000000600052602260045260246000fd5b60006002820490506001821680620000d157607f821691505b602082108103620000e757620000e662000089565b5b50919050565b60008190508160005260206000209050919050565b60006020601f8301049050919050565b600082821b905092915050565b600060088302620001517fffffffffffffffffffffffffffffffffffffffffffffffffffffffffffffffff8262000112565b6200015d868362000112565b95508019841693508086168417925050509392505050565b6000819050919050565b6000819050919050565b6000620001aa620001a46200019e8462000175565b6200017f565b62000175565b9050919050565b6000819050919050565b620001c68362000189565b620001de620001d582620001b1565b8484546200011f565b825550505050565b600090565b620001f5620001e6565b62000202818484620001bb565b505050565b5b818110156200022a576200021e600082620001eb565b60018101905062000208565b5050565b601f82111562000279576200024381620000ed565b6200024e8462000102565b810160208510156200025e578190505b620002766200026d8562000102565b83018262000207565b50505b505050565b600082821c905092915050565b60006200029e600019846008026200027e565b1980831691505092915050565b6000620002b983836200028b565b9150826002028217905092915050565b620002d4826200004f565b67ffffffffffffffff811115620002f057620002ef6200005a565b5b620002fc8254620000b8565b620003098282856200022e565b600060209050601f8311600181146200034157600084156200032c578287015190505b620003388582620002ab565b865550620003a8565b601f1984166200035186620000ed565b60005b828110156200037b5784890151825560018201915060208501945060208101905062000354565b868310156200039b578489015162000397601f8916826200028b565b8355505b6001600288020188555050505b505050505050565b6132fe80620003c06000396000f3fe6080604052600436106101085760003560e01c80637f182b3311610095578063a22cb46511610064578063a22cb4651461036f578063ab7cd1df14610398578063e985e9c5146103c3578063f23a6e6114610400578063f242432a1461043d57610108565b80637f182b33146102d65780638d4ff45e146102ff57806392e505ef14610328578063958429501461034457610108565b80632eb2c2d6116100dc5780632eb2c2d6146101ef5780634e1273f4146102185780635c74d52d1461025557806378b65a81146102805780637dfdf931146102ab57610108565b8062fdd58e1461010d57806301ffc9a71461014a578063042453e2146101875780630e89341c146101b2575b600080fd5b34801561011957600080fd5b50610134600480360381019061012f9190611d79565b610466565b6040516101419190611dc8565b60405180910390f35b34801561015657600080fd5b50610171600480360381019061016c9190611e3b565b61052e565b60405161017e9190611e83565b60405180910390f35b34801561019357600080fd5b5061019c610610565b6040516101a99190611dc8565b60405180910390f35b3480156101be57600080fd5b506101d960048036038101906101d49190611e9e565b610615565b6040516101e69190611f5b565b60405180910390f35b3480156101fb57600080fd5b506102166004803603810190610211919061217a565b6106a9565b005b34801561022457600080fd5b5061023f600480360381019061023a919061230c565b61074a565b60405161024c9190612442565b60405180910390f35b34801561026157600080fd5b5061026a610863565b6040516102779190611dc8565b60405180910390f35b34801561028c57600080fd5b5061029561086e565b6040516102a29190611dc8565b60405180910390f35b3480156102b757600080fd5b506102c0610873565b6040516102cd9190611dc8565b60405180910390f35b3480156102e257600080fd5b506102fd60048036038101906102f89190611e9e565b610878565b005b34801561030b57600080fd5b5061032660048036038101906103219190611e9e565b61096a565b005b610342600480360381019061033d9190611e9e565b610aa4565b005b34801561035057600080fd5b50610359610b20565b6040516103669190611dc8565b60405180910390f35b34801561037b57600080fd5b5061039660048036038101906103919190612490565b610b25565b005b3480156103a457600080fd5b506103ad610b3b565b6040516103ba9190611dc8565b60405180910390f35b3480156103cf57600080fd5b506103ea60048036038101906103e591906124d0565b610b40565b6040516103f79190611e83565b60405180910390f35b34801561040c57600080fd5b5061042760048036038101906104229190612510565b610bd4565b60405161043491906125b6565b60405180910390f35b34801561044957600080fd5b50610464600480360381019061045f9190612510565b610be9565b005b60008073ffffffffffffffffffffffffffffffffffffffff168373ffffffffffffffffffffffffffffffffffffffff16036104d6576040517f08c379a00000000000000000000000000000000000000000000000000000000081526004016104cd90612643565b60405180910390fd5b60008083815260200190815260200160002060008473ffffffffffffffffffffffffffffffffffffffff1673ffffffffffffffffffffffffffffffffffffffff16815260200190815260200160002054905092915050565b60007fd9b67a26000000000000000000000000000000000000000000000000000000007bffffffffffffffffffffffffffffffffffffffffffffffffffffffff1916827bffffffffffffffffffffffffffffffffffffffffffffffffffffffff191614806105f957507f0e89341c000000000000000000000000000000000000000000000000000000007bffffffffffffffffffffffffffffffffffffffffffffffffffffffff1916827bffffffffffffffffffffffffffffffffffffffffffffffffffffffff1916145b80610609575061060882610c8a565b5b9050919050565b600081565b60606002805461062490612692565b80601f016020809104026020016040519081016040528092919081815260200182805461065090612692565b801561069d5780601f106106725761010080835404028352916020019161069d565b820191906000526020600020905b81548152906001019060200180831161068057829003601f168201915b50505050509050919050565b6106b1610cf4565b73ffffffffffffffffffffffffffffffffffffffff168573ffffffffffffffffffffffffffffffffffffffff1614806106f757506106f6856106f1610cf4565b610b40565b5b610736576040517f08c379a000000000000000000000000000000000000000000000000000000000815260040161072d90612735565b60405180910390fd5b6107438585858585610cfc565b5050505050565b60608151835114610790576040517f08c379a0000000000000000000000000000000000000000000000000000000008152600401610787906127c7565b60405180910390fd5b6000835167ffffffffffffffff8111156107ad576107ac611f82565b5b6040519080825280602002602001820160405280156107db5781602001602082028036833780820191505090505b50905060005b845181101561085857610828858281518110610800576107ff6127e7565b5b602002602001015185838151811061081b5761081a6127e7565b5b6020026020010151610466565b82828151811061083b5761083a6127e7565b5b6020026020010181815250508061085190612845565b90506107e1565b508091505092915050565b662386f26fc1000081565b600381565b600181565b61088061101d565b60038161088d919061288d565b610898336000610466565b10156108d9576040517f08c379a00000000000000000000000000000000000000000000000000000000081526004016108d09061291b565b60405180910390fd5b6108e33330610b40565b610922576040517f08c379a000000000000000000000000000000000000000000000000000000000815260040161091990612987565b60405180910390fd5b61094b33306000600385610936919061288d565b60405180602001604052806000815250610be9565b6109673360018360405180602001604052806000815250611079565b50565b61097261101d565b600a8161097f919061288d565b61098a336000610466565b10156109cb576040517f08c379a00000000000000000000000000000000000000000000000000000000081526004016109c29061291b565b60405180910390fd5b806109d7336001610466565b1015610a18576040517f08c379a0000000000000000000000000000000000000000000000000000000008152600401610a0f906129f3565b60405180910390fd5b610a223330610b40565b610a61576040517f08c379a0000000000000000000000000000000000000000000000000000000008152600401610a5890612987565b60405180910390fd5b610a79336000600a84610a74919061288d565b611229565b610a8533600183611229565b610aa13360028360405180602001604052806000815250611079565b50565b610aac61101d565b80662386f26fc10000610abf919061288d565b341015610b01576040517f08c379a0000000000000000000000000000000000000000000000000000000008152600401610af890612a5f565b60405180910390fd5b610b1d3360008360405180602001604052806000815250611079565b50565b600281565b610b37610b30610cf4565b838361146f565b5050565b600a81565b6000600160008473ffffffffffffffffffffffffffffffffffffffff1673ffffffffffffffffffffffffffffffffffffffff16815260200190815260200160002060008373ffffffffffffffffffffffffffffffffffffffff1673ffffffffffffffffffffffffffffffffffffffff16815260200190815260200160002060009054906101000a900460ff16905092915050565b600063f23a6e6160e01b905095945050505050565b610bf1610cf4565b73ffffffffffffffffffffffffffffffffffffffff168573ffffffffffffffffffffffffffffffffffffffff161480610c375750610c3685610c31610cf4565b610b40565b5b610c76576040517f08c379a0000000000000000000000000000000000000000000000000000000008152600401610c6d90612735565b60405180910390fd5b610c8385858585856115db565b5050505050565b60007f01ffc9a7000000000000000000000000000000000000000000000000000000007bffffffffffffffffffffffffffffffffffffffffffffffffffffffff1916827bffffffffffffffffffffffffffffffffffffffffffffffffffffffff1916149050919050565b600033905090565b8151835114610d40576040517f08c379a0000000000000000000000000000000000000000000000000000000008152600401610d3790612af1565b60405180910390fd5b600073ffffffffffffffffffffffffffffffffffffffff168473ffffffffffffffffffffffffffffffffffffffff1603610daf576040517f08c379a0000000000000000000000000000000000000000000000000000000008152600401610da690612b83565b60405180910390fd5b6000610db9610cf4565b9050610dc9818787878787611876565b60005b8451811015610f7a576000858281518110610dea57610de96127e7565b5b602002602001015190506000858381518110610e0957610e086127e7565b5b60200260200101519050600080600084815260200190815260200160002060008b73ffffffffffffffffffffffffffffffffffffffff1673ffffffffffffffffffffffffffffffffffffffff16815260200190815260200160002054905081811015610eaa576040517f08c379a0000000000000000000000000000000000000000000000000000000008152600401610ea190612c15565b60405180910390fd5b81810360008085815260200190815260200160002060008c73ffffffffffffffffffffffffffffffffffffffff1673ffffffffffffffffffffffffffffffffffffffff168152602001908152602001600020819055508160008085815260200190815260200160002060008b73ffffffffffffffffffffffffffffffffffffffff1673ffffffffffffffffffffffffffffffffffffffff1681526020019081526020016000206000828254610f5f9190612c35565b9250508190555050505080610f7390612845565b9050610dcc565b508473ffffffffffffffffffffffffffffffffffffffff168673ffffffffffffffffffffffffffffffffffffffff168273ffffffffffffffffffffffffffffffffffffffff167f4a39dc06d4c0dbc64b70af90fd698a233a518aa5d07e595d983b8c0526c8f7fb8787604051610ff1929190612c69565b60405180910390a461100781878787878761187e565b611015818787878787611886565b505050505050565b60003373ffffffffffffffffffffffffffffffffffffffff163b14611077576040517f08c379a000000000000000000000000000000000000000000000000000000000815260040161106e90612cec565b60405180910390fd5b565b600073ffffffffffffffffffffffffffffffffffffffff168473ffffffffffffffffffffffffffffffffffffffff16036110e8576040517f08c379a00000000000000000000000000000000000000000000000000000000081526004016110df90612d7e565b60405180910390fd5b60006110f2610cf4565b905060006110ff85611a5d565b9050600061110c85611a5d565b905061111d83600089858589611876565b8460008088815260200190815260200160002060008973ffffffffffffffffffffffffffffffffffffffff1673ffffffffffffffffffffffffffffffffffffffff168152602001908152602001600020600082825461117c9190612c35565b925050819055508673ffffffffffffffffffffffffffffffffffffffff16600073ffffffffffffffffffffffffffffffffffffffff168473ffffffffffffffffffffffffffffffffffffffff167fc3d58168c5ae7397731d063d5bbf3d657854427343f4c083240f7aacaa2d0f6289896040516111fa929190612d9e565b60405180910390a46112118360008985858961187e565b61122083600089898989611ad7565b50505050505050565b600073ffffffffffffffffffffffffffffffffffffffff168373ffffffffffffffffffffffffffffffffffffffff1603611298576040517f08c379a000000000000000000000000000000000000000000000000000000000815260040161128f90612e39565b60405180910390fd5b60006112a2610cf4565b905060006112af84611a5d565b905060006112bc84611a5d565b90506112dc83876000858560405180602001604052806000815250611876565b600080600087815260200190815260200160002060008873ffffffffffffffffffffffffffffffffffffffff1673ffffffffffffffffffffffffffffffffffffffff16815260200190815260200160002054905084811015611373576040517f08c379a000000000000000000000000000000000000000000000000000000000815260040161136a90612ecb565b60405180910390fd5b84810360008088815260200190815260200160002060008973ffffffffffffffffffffffffffffffffffffffff1673ffffffffffffffffffffffffffffffffffffffff16815260200190815260200160002081905550600073ffffffffffffffffffffffffffffffffffffffff168773ffffffffffffffffffffffffffffffffffffffff168573ffffffffffffffffffffffffffffffffffffffff167fc3d58168c5ae7397731d063d5bbf3d657854427343f4c083240f7aacaa2d0f628989604051611440929190612d9e565b60405180910390a46114668488600086866040518060200160405280600081525061187e565b50505050505050565b8173ffffffffffffffffffffffffffffffffffffffff168373ffffffffffffffffffffffffffffffffffffffff16036114dd576040517f08c379a00000000000000000000000000000000000000000000000000000000081526004016114d490612f5d565b60405180910390fd5b80600160008573ffffffffffffffffffffffffffffffffffffffff1673ffffffffffffffffffffffffffffffffffffffff16815260200190815260200160002060008473ffffffffffffffffffffffffffffffffffffffff1673ffffffffffffffffffffffffffffffffffffffff16815260200190815260200160002060006101000a81548160ff0219169083151502179055508173ffffffffffffffffffffffffffffffffffffffff168373ffffffffffffffffffffffffffffffffffffffff167f17307eab39ab6107e8899845ad3d59bd9653f200f220920489ca2b5937696c31836040516115ce9190611e83565b60405180910390a3505050565b600073ffffffffffffffffffffffffffffffffffffffff168473ffffffffffffffffffffffffffffffffffffffff160361164a576040517f08c379a000000000000000000000000000000000000000000000000000000000815260040161164190612b83565b60405180910390fd5b6000611654610cf4565b9050600061166185611a5d565b9050600061166e85611a5d565b905061167e838989858589611876565b600080600088815260200190815260200160002060008a73ffffffffffffffffffffffffffffffffffffffff1673ffffffffffffffffffffffffffffffffffffffff16815260200190815260200160002054905085811015611715576040517f08c379a000000000000000000000000000000000000000000000000000000000815260040161170c90612c15565b60405180910390fd5b85810360008089815260200190815260200160002060008b73ffffffffffffffffffffffffffffffffffffffff1673ffffffffffffffffffffffffffffffffffffffff168152602001908152602001600020819055508560008089815260200190815260200160002060008a73ffffffffffffffffffffffffffffffffffffffff1673ffffffffffffffffffffffffffffffffffffffff16815260200190815260200160002060008282546117ca9190612c35565b925050819055508773ffffffffffffffffffffffffffffffffffffffff168973ffffffffffffffffffffffffffffffffffffffff168573ffffffffffffffffffffffffffffffffffffffff167fc3d58168c5ae7397731d063d5bbf3d657854427343f4c083240f7aacaa2d0f628a8a604051611847929190612d9e565b60405180910390a461185d848a8a86868a61187e565b61186b848a8a8a8a8a611ad7565b505050505050505050565b505050505050565b505050505050565b6118a58473ffffffffffffffffffffffffffffffffffffffff16611cae565b15611a55578373ffffffffffffffffffffffffffffffffffffffff1663bc197c8187878686866040518663ffffffff1660e01b81526004016118eb959493929190612fe1565b6020604051808303816000875af192505050801561192757506040513d601f19601f82011682018060405250810190611924919061305e565b60015b6119cc57611933613098565b806308c379a00361198f57506119476130ba565b806119525750611991565b806040517f08c379a00000000000000000000000000000000000000000000000000000000081526004016119869190611f5b565b60405180910390fd5b505b6040517f08c379a00000000000000000000000000000000000000000000000000000000081526004016119c3906131bc565b60405180910390fd5b63bc197c8160e01b7bffffffffffffffffffffffffffffffffffffffffffffffffffffffff1916817bffffffffffffffffffffffffffffffffffffffffffffffffffffffff191614611a53576040517f08c379a0000000000000000000000000000000000000000000000000000000008152600401611a4a9061324e565b60405180910390fd5b505b505050505050565b60606000600167ffffffffffffffff811115611a7c57611a7b611f82565b5b604051908082528060200260200182016040528015611aaa5781602001602082028036833780820191505090505b5090508281600081518110611ac257611ac16127e7565b5b60200260200101818152505080915050919050565b611af68473ffffffffffffffffffffffffffffffffffffffff16611cae565b15611ca6578373ffffffffffffffffffffffffffffffffffffffff1663f23a6e6187878686866040518663ffffffff1660e01b8152600401611b3c95949392919061326e565b6020604051808303816000875af1925050508015611b7857506040513d601f19601f82011682018060405250810190611b75919061305e565b60015b611c1d57611b84613098565b806308c379a003611be05750611b986130ba565b80611ba35750611be2565b806040517f08c379a0000000000000000000000000000000000000000000000000000000008152600401611bd79190611f5b565b60405180910390fd5b505b6040517f08c379a0000000000000000000000000000000000000000000000000000000008152600401611c14906131bc565b60405180910390fd5b63f23a6e6160e01b7bffffffffffffffffffffffffffffffffffffffffffffffffffffffff1916817bffffffffffffffffffffffffffffffffffffffffffffffffffffffff191614611ca4576040517f08c379a0000000000000000000000000000000000000000000000000000000008152600401611c9b9061324e565b60405180910390fd5b505b505050505050565b6000808273ffffffffffffffffffffffffffffffffffffffff163b119050919050565b6000604051905090565b600080fd5b600080fd5b600073ffffffffffffffffffffffffffffffffffffffff82169050919050565b6000611d1082611ce5565b9050919050565b611d2081611d05565b8114611d2b57600080fd5b50565b600081359050611d3d81611d17565b92915050565b6000819050919050565b611d5681611d43565b8114611d6157600080fd5b50565b600081359050611d7381611d4d565b92915050565b60008060408385031215611d9057611d8f611cdb565b5b6000611d9e85828601611d2e565b9250506020611daf85828601611d64565b9150509250929050565b611dc281611d43565b82525050565b6000602082019050611ddd6000830184611db9565b92915050565b60007fffffffff0000000000000000000000000000000000000000000000000000000082169050919050565b611e1881611de3565b8114611e2357600080fd5b50565b600081359050611e3581611e0f565b92915050565b600060208284031215611e5157611e50611cdb565b5b6000611e5f84828501611e26565b91505092915050565b60008115159050919050565b611e7d81611e68565b82525050565b6000602082019050611e986000830184611e74565b92915050565b600060208284031215611eb457611eb3611cdb565b5b6000611ec284828501611d64565b91505092915050565b600081519050919050565b600082825260208201905092915050565b60005b83811015611f05578082015181840152602081019050611eea565b60008484015250505050565b6000601f19601f8301169050919050565b6000611f2d82611ecb565b611f378185611ed6565b9350611f47818560208601611ee7565b611f5081611f11565b840191505092915050565b60006020820190508181036000830152611f758184611f22565b905092915050565b600080fd5b7f4e487b7100000000000000000000000000000000000000000000000000000000600052604160045260246000fd5b611fba82611f11565b810181811067ffffffffffffffff82111715611fd957611fd8611f82565b5b80604052505050565b6000611fec611cd1565b9050611ff88282611fb1565b919050565b600067ffffffffffffffff82111561201857612017611f82565b5b602082029050602081019050919050565b600080fd5b600061204161203c84611ffd565b611fe2565b9050808382526020820190506020840283018581111561206457612063612029565b5b835b8181101561208d57806120798882611d64565b845260208401935050602081019050612066565b5050509392505050565b600082601f8301126120ac576120ab611f7d565b5b81356120bc84826020860161202e565b91505092915050565b600080fd5b600067ffffffffffffffff8211156120e5576120e4611f82565b5b6120ee82611f11565b9050602081019050919050565b82818337600083830152505050565b600061211d612118846120ca565b611fe2565b905082815260208101848484011115612139576121386120c5565b5b6121448482856120fb565b509392505050565b600082601f83011261216157612160611f7d565b5b813561217184826020860161210a565b91505092915050565b600080600080600060a0868803121561219657612195611cdb565b5b60006121a488828901611d2e565b95505060206121b588828901611d2e565b945050604086013567ffffffffffffffff8111156121d6576121d5611ce0565b5b6121e288828901612097565b935050606086013567ffffffffffffffff81111561220357612202611ce0565b5b61220f88828901612097565b925050608086013567ffffffffffffffff8111156122305761222f611ce0565b5b61223c8882890161214c565b9150509295509295909350565b600067ffffffffffffffff82111561226457612263611f82565b5b602082029050602081019050919050565b600061228861228384612249565b611fe2565b905080838252602082019050602084028301858111156122ab576122aa612029565b5b835b818110156122d457806122c08882611d2e565b8452602084019350506020810190506122ad565b5050509392505050565b600082601f8301126122f3576122f2611f7d565b5b8135612303848260208601612275565b91505092915050565b6000806040838503121561232357612322611cdb565b5b600083013567ffffffffffffffff81111561234157612340611ce0565b5b61234d858286016122de565b925050602083013567ffffffffffffffff81111561236e5761236d611ce0565b5b61237a85828601612097565b9150509250929050565b600081519050919050565b600082825260208201905092915050565b6000819050602082019050919050565b6123b981611d43565b82525050565b60006123cb83836123b0565b60208301905092915050565b6000602082019050919050565b60006123ef82612384565b6123f9818561238f565b9350612404836123a0565b8060005b8381101561243557815161241c88826123bf565b9750612427836123d7565b925050600181019050612408565b5085935050505092915050565b6000602082019050818103600083015261245c81846123e4565b905092915050565b61246d81611e68565b811461247857600080fd5b50565b60008135905061248a81612464565b92915050565b600080604083850312156124a7576124a6611cdb565b5b60006124b585828601611d2e565b92505060206124c68582860161247b565b9150509250929050565b600080604083850312156124e7576124e6611cdb565b5b60006124f585828601611d2e565b925050602061250685828601611d2e565b9150509250929050565b600080600080600060a0868803121561252c5761252b611cdb565b5b600061253a88828901611d2e565b955050602061254b88828901611d2e565b945050604061255c88828901611d64565b935050606061256d88828901611d64565b925050608086013567ffffffffffffffff81111561258e5761258d611ce0565b5b61259a8882890161214c565b9150509295509295909350565b6125b081611de3565b82525050565b60006020820190506125cb60008301846125a7565b92915050565b7f455243313135353a2061646472657373207a65726f206973206e6f742061207660008201527f616c6964206f776e657200000000000000000000000000000000000000000000602082015250565b600061262d602a83611ed6565b9150612638826125d1565b604082019050919050565b6000602082019050818103600083015261265c81612620565b9050919050565b7f4e487b7100000000000000000000000000000000000000000000000000000000600052602260045260246000fd5b600060028204905060018216806126aa57607f821691505b6020821081036126bd576126bc612663565b5b50919050565b7f455243313135353a2063616c6c6572206973206e6f7420746f6b656e206f776e60008201527f6572206e6f7220617070726f7665640000000000000000000000000000000000602082015250565b600061271f602f83611ed6565b915061272a826126c3565b604082019050919050565b6000602082019050818103600083015261274e81612712565b9050919050565b7f455243313135353a206163636f756e747320616e6420696473206c656e67746860008201527f206d69736d617463680000000000000000000000000000000000000000000000602082015250565b60006127b1602983611ed6565b91506127bc82612755565b604082019050919050565b600060208201905081810360008301526127e0816127a4565b9050919050565b7f4e487b7100000000000000000000000000000000000000000000000000000000600052603260045260246000fd5b7f4e487b7100000000000000000000000000000000000000000000000000000000600052601160045260246000fd5b600061285082611d43565b91507fffffffffffffffffffffffffffffffffffffffffffffffffffffffffffffffff820361288257612881612816565b5b600182019050919050565b600061289882611d43565b91506128a383611d43565b92508282026128b181611d43565b915082820484148315176128c8576128c7612816565b5b5092915050565b7f4e6f7420656e6f75676820546f6b656e20462073656e74000000000000000000600082015250565b6000612905601783611ed6565b9150612910826128cf565b602082019050919050565b60006020820190508181036000830152612934816128f8565b9050919050565b7f4e6f7420617070726f76656420666f72207472616e7366657200000000000000600082015250565b6000612971601983611ed6565b915061297c8261293b565b602082019050919050565b600060208201905081810360008301526129a081612964565b9050919050565b7f4e6f7420656e6f75676820546f6b656e204e2073656e74000000000000000000600082015250565b60006129dd601783611ed6565b91506129e8826129a7565b602082019050919050565b60006020820190508181036000830152612a0c816129d0565b9050919050565b7f4e6f7420656e6f7567682065746865722073656e740000000000000000000000600082015250565b6000612a49601583611ed6565b9150612a5482612a13565b602082019050919050565b60006020820190508181036000830152612a7881612a3c565b9050919050565b7f455243313135353a2069647320616e6420616d6f756e7473206c656e6774682060008201527f6d69736d61746368000000000000000000000000000000000000000000000000602082015250565b6000612adb602883611ed6565b9150612ae682612a7f565b604082019050919050565b60006020820190508181036000830152612b0a81612ace565b9050919050565b7f455243313135353a207472616e7366657220746f20746865207a65726f20616460008201527f6472657373000000000000000000000000000000000000000000000000000000602082015250565b6000612b6d602583611ed6565b9150612b7882612b11565b604082019050919050565b60006020820190508181036000830152612b9c81612b60565b9050919050565b7f455243313135353a20696e73756666696369656e742062616c616e636520666f60008201527f72207472616e7366657200000000000000000000000000000000000000000000602082015250565b6000612bff602a83611ed6565b9150612c0a82612ba3565b604082019050919050565b60006020820190508181036000830152612c2e81612bf2565b9050919050565b6000612c4082611d43565b9150612c4b83611d43565b9250828201905080821115612c6357612c62612816565b5b92915050565b60006040820190508181036000830152612c8381856123e4565b90508181036020830152612c9781846123e4565b90509392505050565b7f43616c6c65722063616e6e6f7420626520636f6e747261637400000000000000600082015250565b6000612cd6601983611ed6565b9150612ce182612ca0565b602082019050919050565b60006020820190508181036000830152612d0581612cc9565b9050919050565b7f455243313135353a206d696e7420746f20746865207a65726f2061646472657360008201527f7300000000000000000000000000000000000000000000000000000000000000602082015250565b6000612d68602183611ed6565b9150612d7382612d0c565b604082019050919050565b60006020820190508181036000830152612d9781612d5b565b9050919050565b6000604082019050612db36000830185611db9565b612dc06020830184611db9565b9392505050565b7f455243313135353a206275726e2066726f6d20746865207a65726f206164647260008201527f6573730000000000000000000000000000000000000000000000000000000000602082015250565b6000612e23602383611ed6565b9150612e2e82612dc7565b604082019050919050565b60006020820190508181036000830152612e5281612e16565b9050919050565b7f455243313135353a206275726e20616d6f756e7420657863656564732062616c60008201527f616e636500000000000000000000000000000000000000000000000000000000602082015250565b6000612eb5602483611ed6565b9150612ec082612e59565b604082019050919050565b60006020820190508181036000830152612ee481612ea8565b9050919050565b7f455243313135353a2073657474696e6720617070726f76616c2073746174757360008201527f20666f722073656c660000000000000000000000000000000000000000000000602082015250565b6000612f47602983611ed6565b9150612f5282612eeb565b604082019050919050565b60006020820190508181036000830152612f7681612f3a565b9050919050565b612f8681611d05565b82525050565b600081519050919050565b600082825260208201905092915050565b6000612fb382612f8c565b612fbd8185612f97565b9350612fcd818560208601611ee7565b612fd681611f11565b840191505092915050565b600060a082019050612ff66000830188612f7d565b6130036020830187612f7d565b818103604083015261301581866123e4565b9050818103606083015261302981856123e4565b9050818103608083015261303d8184612fa8565b90509695505050505050565b60008151905061305881611e0f565b92915050565b60006020828403121561307457613073611cdb565b5b600061308284828501613049565b91505092915050565b60008160e01c9050919050565b600060033d11156130b75760046000803e6130b460005161308b565b90505b90565b600060443d10613147576130cc611cd1565b60043d036004823e80513d602482011167ffffffffffffffff821117156130f4575050613147565b808201805167ffffffffffffffff8111156131125750505050613147565b80602083010160043d03850181111561312f575050505050613147565b61313e82602001850186611fb1565b82955050505050505b90565b7f455243313135353a207472616e7366657220746f206e6f6e204552433131353560008201527f526563656976657220696d706c656d656e746572000000000000000000000000602082015250565b60006131a6603483611ed6565b91506131b18261314a565b604082019050919050565b600060208201905081810360008301526131d581613199565b9050919050565b7f455243313135353a204552433131353552656365697665722072656a6563746560008201527f6420746f6b656e73000000000000000000000000000000000000000000000000602082015250565b6000613238602883611ed6565b9150613243826131dc565b604082019050919050565b600060208201905081810360008301526132678161322b565b9050919050565b600060a0820190506132836000830188612f7d565b6132906020830187612f7d565b61329d6040830186611db9565b6132aa6060830185611db9565b81810360808301526132bc8184612fa8565b9050969550505050505056fea2646970667358221220212eccaf609bf19d8236fa25bffdf7c3497a1472343135c7d2bb3eea1c6062c664736f6c63430008110033",
  "linkReferences": {},
  "deployedLinkReferences": {}
}